:020000040800F2
:1000000068050024B1020008BB330008872D0008F2
:10001000B933000837080008893E000800000000D6
:10002000000000000000000000000000D1360008C1
:100030003908000800000000BD330008D33600086E
:10004000CB020008CB020008CB02000851360008A2
:10005000CB020008CB020008CB020008CB0200084C
:10006000CB020008CB020008CB020008CB0200083C
:10007000CB020008CB020008CB020008CB0200082C
:10008000CB020008CB020008CB020008CB0200081C
:10009000CB020008CB020008CB0200083B08000896
:1000A000CB020008CB020008CB020008CB020008FC
:1000B000CB020008CB020008CB020008CB020008EC
:1000C000CB020008CB020008CB020008CB020008DC
:1000D000CB020008CB020008CB020008CB020008CC
:1000E000CB020008B935000800000000CB02000870
:1000F000CB020008CB020008CB020008CB020008AC
:10010000CB020008CB020008CB020008CB0200089B
:10011000CB020008CB020008CB020008CB0200088B
:10012000CB020008CB020008CB020008CB0200087B
:10013000CB020008CB020008CB020008CB0200086B
:1001400000000000000000000000000000000000AF
:10015000CB020008CB020008CB020008CB0200084B
:10016000CB020008CB020008CB020008CB0200083B
:10017000CB020008CB020008CB0200080000000000
:10018000CB020008CB020008CB020008CB0200081B
:10019000CB020008CB020008CB020008CB0200080B
:1001A000CB020008CB020008CB020008CB020008FB
:1001B000CB020008CB020008CB020008CB020008EB
:1001C000CB020008CB020008CB020008CB020008DB
:1001D000CB020008CB020008CB020008CB020008CB
:1001E000CB020008CB020008CB020008CB020008BB
:1001F000CB020008CB020008CB020008CB020008AB
:10020000CB020008CB020008CB020008CB0200089A
:10021000CB020008CB020008CB020008CB0200088A
:10022000CB020008CB020008CB020008000000004F
:10023000CB020008CB02000800000000CB0200083F
:10024000CB020008CB020008CB020008CB0200085A
:10025000CB020008CB020008CB020008CB0200084A
:10026000CB020008CB020008CB020008CB0200083A
:10027000CB020008CB020008CB02000800000000FF
:10028000CB02000800000000CB02000800000000C4
:1002900000000000CB020008DFF810D000F04AFA9E
:1002A00000480047D1470008AFF3008068050024EC
:1002B0000648804706480047FEE7FEE7FEE7FEE700
:1002C000FEE7FEE7FEE7FEE7FEE7FEE79137000800
:1002D000990200082DE9F05F0546002092469B46F2
:1002E00088460646814640241BE02846414647464C
:1002F000224600F057F853465A46C01A914110D38F
:1003000011461846224600F03EF82D1A67EB010808
:100310004F4622460120002100F035F817EB000976
:100320004E41201EA4F10104DFDC484631462A4636
:100330004346BDE8F09FD2B201E000F8012B491E10
:10034000FBD270470022F6E710B513460A46044672
:100350001946FFF7F0FF204610BD30B50B460146A9
:1003600000202022012409E021FA02F59D4205D354
:1003700003FA02F5491B04FA02F52844151EA2F1FE
:100380000102F1DC30BD202A04DB203A00FA02F140
:10039000002070479140C2F1200320FA03F3194373
:1003A00090407047202A04DB203A21FA02F0002115
:1003B000704721FA02F3D040C2F120029140084375
:1003C000194670472DE9FE4F804681EA0300C00FB1
:1003D0000C46009021F0004123F00045B8EB0200EC
:1003E000A94105D24046214690461C460B4602468E
:1003F00023F00040104347D0270DC7F30A00C3F392
:100400000A510290401A019040286BDAC3F313009E
:1004100040F4801B0098924620B10023D2EB030ADF
:1004200063EB0B0B01985946C0F140025046FFF7B1
:10043000AAFF06460D4650465946019A00F08CF92F
:1004400010EB08006141002487EA115284EAE77347
:100450001A4340D0009A62B3019A012A4FEA075228
:1004600015DC001B61EB02014FF0004202EA07526B
:10047000CDE90042001C41F5801132462B4600F0C8
:100480008CF903B0BDE8F08F40462146F9E7001B28
:1004900061EB0201001C41F5801300185B4120183C
:1004A000A2F5001747EB030140EAD570B6196D417C
:1004B00011E06D084FEA360645EAC0754FEA07526B
:1004C000001B61EB0201001C41F5801149084FEA55
:1004D00030000019514132462B4603B0BDE8F04FC1
:1004E00000F04CB90098012240000023D0EB02023A
:1004F00063EBE073009821464FEAE074B8EB00002C
:1005000061EB0401E9E783F000435BE781F0004120
:1005100058E72DE9FE4F81EA030404F0004421F07E
:10052000004100944FF0000B23F0004350EA010417
:100530005ED052EA03045BD0C3F30A54C1F30A55F8
:100540002C44A4F2F3340194A0FB0254C1F3130130
:1005500041F48011C3F3130343F4801301FB0244FD
:1005600000FB034E840A970A44EA815447EA835702
:10057000A4FB076802958D0A05FB07854FEA932CBB
:1005800004FB0C542705029D4FEA065847EA16372C
:10059000B5EB08056EEB070C870E920E47EA811744
:1005A00042EA8312A7FB0201B6EB0B0164EB0004E5
:1005B0002B0D43EA0C335E1844EB1C50DA465146CF
:1005C000E7FB0201C5F313044FEA0B3343EA14536C
:1005D0004FEA0432019C43EA0603A4F10C0402949E
:1005E000009CCDE900B400F0D8F803B0BDE8F08F6E
:1005F00000200146F9E72DE9F04D81EA030404F0FB
:10060000004B21F0004514464FF0000A23F0004152
:1006100050EA050220D054EA01021DD0C5F30A5762
:100620000246C5F31303C1F31300C1F30A5640F4A5
:10063000801543F48013A7EB0608101BD64608F27A
:10064000FD3873EB050002D308F1010801E09218B0
:100650005B41B8F1000F03DA00200146BDE8F08DE0
:1006600000204FF48011064684460EE0171B73EB02
:10067000050705D3121B63EB050306434CEA010C87
:1006800049084FEA300092185B4150EA0107EDD16A
:1006900052EA030012D082EA040083EA050108430B
:1006A00005D0101BAB4106D20122002306E0002238
:1006B0004FF0004302E06FF0010253101AEB060006
:1006C0004CEB085110EB0A0041EB0B01BDE8F04D7B
:1006D00000F054B8C1F30A52C1F3130140F2FF33E2
:1006E00041F480119A4202DA00200146704740F23C
:1006F00033439A42A2F2334202DC5242FFF752BE27
:10070000FFF741BE30B5041E71F1000404DB4FF069
:100710000044404264EB0101141E73F1000405DB48
:100720001C464FF00043524263EB0403994208BF5A
:10073000904230BD064C074D06E0E06840F00103F2
:1007400094E8070098471034AC42F6D3FFF7A8FDB1
:100750002C4A00084C4A0008202A06DBCB17203A16
:1007600041FA02F043EAE07306E041FA02F3D040B6
:10077000C2F12002914008431946704710B5141E7B
:1007800073F1000408DA401C41F1000192185B414A
:100790001A4301D120F0010010BD2DE9F04D924621
:1007A0009B4611B1B1FA81F202E0B0FA80F2203238
:1007B0009046FFF7E8FD04460F4640EA0A0041EA8A
:1007C0000B0153465A46084313D0114653EA010021
:1007D00019D0C8F140025046FFF7E4FD05460E4629
:1007E000504659464246FFF7CEFD084305D001204A
:1007F00004E020463946BDE8F08D0020054346EA76
:10080000E0762C4337430A986305E40AA0EB08001E
:100810000022FD0A44EA47540A3002D5002001466E
:10082000E9E7010510196941DDE908450019694149
:10083000BDE8F04DA2E7FEE770474FF0B040D0F8BA
:100840008810C90503D54FF48071C0F8881070472F
:100850007047000070B5044600F008F90546601CBA
:1008600002D004480078044400F000F9401BA04284
:10087000FAD370BD100000242DE9F84F6F4D00220F
:100880004FF001094FF0030E4FF00F0B0B6809FA00
:1008900002F803EA0803434574D14C68022C01D0E6
:1008A000122C0FD1D4080E69570700EB8404A2461E
:1008B000246AFF0E0BFA07FCBE4024EA0C04264310
:1008C000CAF820600F79540006680EFA04FC07F09D
:1008D000030726EA0C06A740374307604E68012E3F
:1008E00005D0022E03D0112E01D0122E0FD1866812
:1008F000CF6826EA0C06A7403743876046680F7921
:1009000026EA0806C7F30017974037434760C768D1
:100910008E6827EA0C07A6403E43C6604C68E40098
:1009200030D5474C266846F002062660246822F03F
:10093000030606F1B04604F0020400949407270F62
:10094000D6F80844DFF8FC800BFA07FC404524EA9F
:100950000C0402D14FF0000C41E0DFF8ECC0604520
:1009600002D14FF0010C3AE0DFF8E0C0604502D15F
:100970004FF0020C33E0DFF8D8C0604503D14FF0F0
:10098000030C2CE053E0DFF8CCC0604502D14FF0FF
:10099000040C24E0DFF8C0C0604502D14FF0050C24
:1009A0001DE0DFF8B8C0604502D14FF0060C16E03C
:1009B000DFF8ACC0604502D14FF0070C0FE0DFF864
:1009C000A4C0604502D14FF0080C08E0DFF898C0E1
:1009D000604502D14FF0090C01E04FF00A0C0CFA0F
:1009E00007FC4CEA040CC6F808C42C684E6824EADC
:1009F0000304F60300D51C432C606C684E6824EA9F
:100A00000304B60300D51C436C604FF0B0444F683C
:100A10002668FF0226EA030600D51E4326604F68BB
:100A20006668BF0226EA030600D51E436660521CB4
:100A3000102AFFF42BAFBDE8F88F000080000058AB
:100A4000F4440258000002580004025800080258FA
:100A5000000C0258001002580014025800180258E6
:100A6000001C0258002002580024025801488068E7
:100A7000704700001000002430B590F84120202A73
:100A800024D190F84020012A20D0012380F8403062
:100A9000242280F84120202300240268156825F0D4
:100AA000010515600268156825F480551560026817
:100AB00015680D43156001680A6842F001020A607A
:100AC00080F8413080F84040002030BD022030BD29
:100AD00090F841007047000070B5040004D094F80D
:100AE0004100002510B106E0012070BD204684F8C9
:100AF000405000F049FA242084F841002068016841
:100B000021F001010160D4E9001020F0706008615B
:100B10002068816821F400418160E0682168012833
:100B2000A06806D040F404408860E068022803D042
:100B300006E040F40040F7E721684FF400604860A9
:100B400020212068114A4368134343602068C2682B
:100B500022F40042C26054F8106B0DCC104340EAFE
:100B60000320F06054F81C3CD4E9000210431860E4
:100B700054F81C0D026842F001020260656484F8BA
:100B80004110256384F84250002070BD00800002AF
:100B90002DE9FC470027044699469246019788466E
:100BA00090F8410020287CD120688069C04300046F
:100BB00077D594F84000012873D0012184F84010C3
:100BC000242084F8410020256764E068012809D0CA
:100BD00028F4544040F4205021684860FFF746FF55
:100BE000064615E0304A314948EA02000840F3E77A
:100BF000B9F1FF3F0CD0B9F1000F04D0FFF736FF79
:100C0000811B494504D984F8415084F840703FE085
:100C100020688169C943890607D58069C043C00639
:100C200003D594F84100A028E2D1206880694B46A2
:100C30004FF000024FF02001C0430096C00620464E
:100C40000BD502F0E9F918BB2068C56184F8415062
:100C5000002084F84070BDE8FC8702F0DDF9B8B9E7
:100C600021681020C8612068C5610198504500F1D5
:100C70000100019011D12068416841F48041416038
:100C800000224B4620212046009602F0C5F910B103
:100C90000320E0E705E02068C5610199514594D340
:100CA000B1E70220D7E7000000200002FF23000286
:100CB0002DE9FF4F83B0044690F841009A469346D1
:100CC000DDE91087DDF84890202874D15FEA08003C
:100CD00072D0002F70D094F8400001286BD0012012
:100CE00084F84000FFF7C2FE012206461923009057
:100CF000D103204602F090F9002874D10025C4F8F1
:100D00002480222184F84110402084F84200656448
:100D10006785534665635A4604992046CDE9009697
:100D200002F0F4F828B1606C84F8405004285ED0DA
:100D300059E0618DFF2738484FF08078FF294FF048
:100D4000007A04D927853A464346009005E0618D34
:100D500053462185009094F828202046049902F0FB
:100D600045F900224B4604212046009602F054F932
:100D7000C8BB2168606A496A421C62620170208DAA
:100D8000401E0004000C2085618DA1F101016185E8
:100D90001DD1608DD8B100224B468021204600969F
:100DA00002F03AF9F8B9608DFF2806D927853A464E
:100DB0004346009507E02CE019E0608D53462085FE
:100DC000009594F828202046049902F00FF9608DD0
:100DD0000028C6D132464946204602F046F940B1C5
:100DE000606C042803D0032007B0BDE8F08F012019
:100DF000FAE720682021094AC1612068436813404E
:100E0000436084F8411084F84250002084F8405038
:100E1000EAE70220E8E700000024008000E800FE86
:100E20002DE9FF4F83B0044690F841009A4693465F
:100E3000DDE91087DDF84890202870D15FEA0800CE
:100E40006ED0002F6CD094F84000012867D00120AC
:100E500084F84000FFF70AFE01220646192300909D
:100E6000D103204602F0D8F8002854D10025C4F858
:100E70002480212184F84110402084F842006564D8
:100E80006785534665635A4604992046CDE9009626
:100E900002F074F828B1606C84F8405004286CD0DB
:100EA00039E0608DFF274FF08078FF284FF0007AFF
:100EB00004D927853A464346009505E0608D5346A0
:100EC0002085009594F828202046049902F08EF899
:100ED00032464946204602F0F0F818B1606C04280A
:100EE0004BD018E0606A411C61622168007888621A
:100EF000608D401E6085208D401E0004000C208502
:100F000021D1608DF8B100224B4680212046009609
:100F100002F082F828B1032007B0BDE8F08F2EE080
:100F20002BE0608DFF2804D927853A46434600957B
:100F300005E0608D53462085009594F828202046D2
:100F4000049902F053F8608D0028C1D13246494619
:100F5000204602F08AF80028C0D120682021094AE2
:100F6000C161206843681340436084F8411084F8ED
:100F70004250002084F84050CEE70120CCE7022008
:100F8000CAE7000000E800FE7047000002488168E0
:100F9000027811448160704710000024032010B5CE
:100FA00000F066F8002000F007F808B1012010BD3D
:100FB00000F022F8002010BD70B50D4D04464FF42E
:100FC0007A700C4A29781268B0FBF1F0B2FBF0F0AD
:100FD00001F001FE48B9102C07D200222146501E14
:100FE00000F026F800206C6070BD012070BD00008C
:100FF000100000241C000024054808B5016841F0D9
:1010000002010160006800F00200009008BD0000CD
:10101000F4440258002809DB410900F01F0289004E
:10102000012001F1E0219040C1F80001704700006B
:101030000E4BF0B41B680D46C3F30223C3F1070641
:10104000042E00D90426191D072901D2002300E02F
:10105000DB1E012404FA06F19C40491E2940641E4F
:10106000994014402143F0BC02F020BF0CED00E099
:10107000064900F0070210B54FF6FF040868044B5C
:10108000204040EA02201843086010BD0CED00E04B
:101090000000FA050248016841F480710160704760
:1010A0000048025810B500F0DDFE08494FF4807387
:1010B0000A6893FAA3F3064902F47062B3FA83F361
:1010C000DA40044B9A5CD040086010BD18440258C6
:1010D0001C0000241C4A000810B500F07DFE0749E2
:1010E0001022096892FAA2F201F07001B2FA82F2BB
:1010F000D140034A515CC84010BD00002044025852
:101100001C4A0008424A30B5414D141D136814357D
:10111000DFED400A1268291FB7EE001A24682D6817
:1011200013F0030304F01004C2F30532C5F3CC0539
:1011300015FB04F400EE104AB8EE400A05D0364C18
:10114000012B5DD0022B5BD159E0314C334B283C55
:101150002568AD0615D525680C68C5F3C105C4F32F
:101160000804EB4001EE904AB3FBF2F2F8EE611A8C
:1011700040EE201A00EE102A71EE810AB8EE400A05
:1011800010E00C68B3FBF2F2C4F3080401EE904ADD
:10119000B8EE612A01EE902A00EE202AB8EE610A2C
:1011A00072EE010A0A6820EE200AC2F34622521C9F
:1011B00000EE902AF8EE600A80EE201AFCEEC10ADA
:1011C000C0ED000A0A68C2F30642521C00EE902AE3
:1011D000F8EE600A80EE201AFCEEC10AC0ED010AAA
:1011E0000968C1F30661491C00EE901AF8EE600A26
:1011F00080EE201ABCEEC10A80ED020A30BD084C18
:101200000B68B4FBF2F2C3F3080301EE903ABFE7B8
:10121000284402580000003900093D000090D00326
:1012200000127A00424A30B5414D141D13681C3536
:10123000DFED400A1268291FB7EE001A24682D68F6
:1012400013F0030304F48074C2F30552C5F3CC0514
:1012500015FB04F400EE104AB8EE400A05D0364CF7
:10126000012B5DD0022B5BD159E0314C334B283C34
:101270002568AD0615D525680C68C5F3C105C4F30E
:101280000804EB4001EE904AB3FBF2F2F8EE611A6B
:1012900040EE201A00EE102A71EE810AB8EE400AE4
:1012A00010E00C68B3FBF2F2C4F3080401EE904ABC
:1012B000B8EE612A01EE902A00EE202AB8EE610A0B
:1012C00072EE010A0A6820EE200AC2F34622521C7E
:1012D00000EE902AF8EE600A80EE201AFCEEC10AB9
:1012E000C0ED000A0A68C2F30642521C00EE902AC2
:1012F000F8EE600A80EE201AFCEEC10AC0ED010A89
:101300000968C1F30661491C00EE901AF8EE600A04
:1013100080EE201ABCEEC10A80ED020A30BD084CF6
:101320000B68B4FBF2F2C3F3080301EE903ABFE797
:10133000284402580000003900093D000090D00305
:1013400000127A002DE9FC5F044650F8241B0025AA
:1013500000902E460801FE4FDFF8F8931DD5606E11
:1013600050B1B0F5801F0CD0B0F5001F0ED0B0F515
:10137000401F1DD001250FE0386840F40030386070
:1013800016E00221201D02F01BF803E00098022164
:1013900002F094F805000BD02E462088C00523D516
:1013A000606D05281ED2DFE800F00C11161B1B0033
:1013B000626ED9F8001021F440111143C9F80010F1
:1013C000EBE7386840F40030386009E00021201D68
:1013D00001F0F6FF03E00098002102F06FF80546E7
:1013E0006DB100E001252E432088800528D5A06D31
:1013F00080281ED00CDC90B140280ED114E0626D24
:10140000D9F8001021F007011143C9F80010EBE7EB
:10141000C02813D0B0F5807F10D001250FE03868C8
:1014200040F40030386009E00021201D01F0C8FFC1
:1014300003E00098002102F041F8054695B12E43E3
:101440002088DFF81083400508F108082CD5D4F86F
:10145000A400B0F5800F20D00DDCA0B1B0F5001FC6
:101460000FD115E0A26DD9F8001021F4E0711143FD
:10147000C9F80010E4E7B0F5C00F13D0B0F5000FC5
:1014800010D001250FE0386840F40030386009E0E2
:101490000021201D01F094FF03E00098002102F0DC
:1014A0000DF8054675B12E43208800052DD5D4F8DA
:1014B000A800B0F1007F21D00EDCA8B1B0F1807F90
:1014C00010D116E0D4F8A420D8F8001021F460015F
:1014D0001143C8F80010E7E7B0F1407F13D0B0F136
:1014E000806F10D001250FE0386840F4003038607C
:1014F00009E00021201D01F063FF03E000980021B6
:1015000001F0DCFF05466DB12E43206880011FD538
:10151000A06CD8B110280FD0202812D0302815D0B8
:10152000012514E0D4F8A820D8F8001021F0E061DB
:101530001143C8F80010E8E7386840F4003038601C
:1015400004E00221201D01F03BFF05466DB12E4352
:101550002088C0042BD5E06DB0F5005F20D00DDCF5
:10156000A0B1B0F5805F0FD115E07A48A26C001FE2
:10157000016821F0300111430160E9E7B0F5405FF7
:1015800013D0B0F5804F10D001250FE0386840F43B
:101590000030386009E00021201D01F011FF03E058
:1015A0000098002101F08AFF054685B12E4320886E
:1015B000800429D5206EB0F5403F23D010DC08B35D
:1015C000B0F5803F14D0B0F5003F0FD115E0E26DCB
:1015D000D9F8001021F4E0411143C9F80010E6E702
:1015E000B0F5802F0ED0B0F5A02F0BD001250AE06A
:1015F0000121201D01F0E4FE03E00098012101F02B
:101600005DFF05468DB12E43208840042AD5D4F8CD
:10161000AC00B0F1405F23D010DC08B3B0F1805FC4
:1016200014D0B0F1005F0FD115E0226ED9F8001090
:1016300021F4E0211143C9F80010E5E7B0F1804F33
:101640000ED0B0F1A04F0BD001250AE00121201DE2
:1016500001F0B6FE03E00098012101F02FFF0546DE
:101660006DB12E43208800041FD5E06ED8B1B0F1D3
:10167000805F0ED0B0F1005F10D0012514E0D4F8E7
:10168000AC20D8F8001021F0E0411143C8F8001058
:10169000E8E7386840F40030386004E00121201D9C
:1016A00001F08EFE05466DB12E432068C0011ED5A7
:1016B000606CD0B101280ED0022811D0032814D0BC
:1016C000012513E0E26ED9F8001021F040511143DA
:1016D000C9F80010E9E7386840F40030386004E0E9
:1016E0000221201D01F06CFE054685B12E432068C5
:1016F000DFF85CB04002ABF11C0B1FD51648016847
:1017000041F480710160FFF7B1F9824610E01148A1
:10171000626C001F016821F0030111430160E6E7DC
:10172000FFF7A4F9A0EB0A00642801D9032504E01F
:1017300009480068C005F3D5C5B12E432078DFF80D
:1017400014A0C0070AF1040A79D0A06F182805E098
:101750002C44025850440258004802586DD05BDCBB
:10176000C0B308285ED010285AD161E0DFF880A409
:10177000B4F8B010DAF8000001F4407100F44070E1
:10178000884211D0DAF80010DAF8002021F4407114
:1017900042F48032CAF80020DAF8002022F48032C5
:1017A000CAF80020CAF80010D4F8B000B0F5807F65
:1017B00015D1FFF75BF901900DE000BFFFF756F977
:1017C0000199411A41F28830814204D9032546F03B
:1017D0000306B3E731E0DAF800008007EED5D4F86D
:1017E000B010C1F30120032858460DD0016821F440
:1017F0007C510160B4F8B020DAF80010C2F30B029B
:101800001143CAF8001099E7FA4A036802EA111274
:1018100023F47C511143ECE720280ED028280CD06B
:1018200001250BE00121201D01F0CAFD04E006E0C6
:101830000098012101F042FE05465DB12E4320785B
:1018400080071ED5606F062819D2DFE800F0160C5D
:1018500011161616A26FDAF8001021F038011143A4
:10186000CAF80010EBE70121201D01F0A9FD03E0FB
:101870000098012101F022FE054675B100E0012526
:101880002E43207840071FD5D4F89000062819D29F
:10189000DFE800F0160C11161616626FDAF8001069
:1018A00021F007011143CAF80010EAE70121201DC9
:1018B00001F086FD03E00098012101F0FFFD0546DF
:1018C0009DB100E001252E43207880062BD5D4F869
:1018D0008C00B0F1405F24D011DC10B3B0F1805F18
:1018E00015D0B0F1005F10D116E0D4F89020D8F8F0
:1018F000001021F007011143C8F80010E4E7B0F12F
:10190000804F0ED0B0F1A04F0BD001250AE000218E
:10191000201D01F055FD03E00098022101F0CEFDED
:1019200005468DB12E43207840062BD5D4F898007B
:10193000B0F5406F24D011DC10B3B0F5806F15D036
:10194000B0F5006F10D116E0D4F88C20DAF8001052
:1019500021F0E0411143CAF80010E4E7B0F5805FE0
:101960000ED0B0F5A05F0BD001250AE00021201DAC
:1019700001F026FD03E00098022101F09FFD0546DD
:101980008DB12E43207800062BD5D4F89C00B0F5FD
:10199000C04F24D011DC10B3B0F5005F15D0B0F506
:1019A000804F10D116E0D4F89820D8F8001021F418
:1019B000E0511143C8F80010E4E7B0F5004F0ED035
:1019C000B0F5204F0BD001250AE00021201D01F0C9
:1019D000F7FC03E00098022101F070FD054665B3B5
:1019E0002E43207800070BD5D4F88010B1F5805F26
:1019F0002DD0DAF8002022F440520A43CAF8002021
:101A00002078C0060BD5D4F89410B1F5807F24D08F
:101A1000D8F8002022F440720A43C8F80020206859
:101A200000032CD5D4F8A000E8B1B0F5803F1FD05A
:101A3000B0F5003F21D0012520E0D4F89C20D8F853
:101A4000001021F460411143C8F80010C9E7009864
:101A5000022101F033FD0643D2E70098022101F094
:101A60002DFD0643DBE70021201D01F0A9FC03E06A
:101A70000098022101F022FD054685B12E43206821
:101A8000400322D5D4F88400B0F5801F11D0B0F502
:101A9000001F13D0B0F5401F15D0012514E0D4F875
:101AA000A020D8F8001021F440311143C8F80010EC
:101AB000E5E7386840F40030386004E00098012120
:101AC00001F0FCFC054655B12E432068C0031CD52F
:101AD000E06C70B1B0F5803F10D0012514E0D4F86F
:101AE0008420DAF8001021F440111143CAF80010E4
:101AF000EBE7386840F40030386004E00221201D34
:101B000001F05EFC0546C5B12E432068800004D577
:101B10000098022101F0D2FC0643206880031BD507
:101B2000E06FB8B1B0F5807F10D0B0F5007F11D074
:101B3000B0F5407F0ED001250DE02D48E26C243831
:101B4000016821F4803111430160DEE7386840F418
:101B500000303860F5B32E432068C00207D5226FED
:101B6000D9F8001021F000411143C9F80010206895
:101B7000C00008D5D4F8B420DBF8001021F480416F
:101B80001143CBF800102068800207D5A26ED9F867
:101B9000001021F080711143C9F800102068400046
:101BA0000CD5DBF8001021F40041CBF80010DBF875
:101BB0000010D4F8B8201143CBF80010206800289A
:101BC00007DA0B48226D2438016821F04051114397
:101BD000016000E003E07EB10120BDE8FC9FE26F00
:101BE000DAF8001021F440711143CAF80010B3E78D
:101BF00070440258CFFFFF000020EEE72DE9F047C8
:101C0000DFF8C49104460E46D9F8000000F0070042
:101C1000B0420CD2D9F8001021F007013143C9F8C5
:101C20000010D9F8000000F00700B04272D120780F
:101C3000DFF89881800707D5E268D8F8001021F016
:101C40000F011143C8F800102078C00767D05F4922
:101C5000A368D8F80020183922F470621A43C8F833
:101C60000020606802281CD003281DD009680128C4
:101C70001DD04907002963DA544D083D296821F039
:101C8000070101432960FEF7F1FE6168074641F252
:101C90008830022914D0032920D0012982462AD075
:101CA00039E009688903E5E709688901E2E7C905C0
:101CB000E0E700BFFEF7DAFEC11B514501D926E07F
:101CC00082462868C0F3C2000228F3D127E000BF93
:101CD000FEF7CCFEC11B514501D918E082462868A9
:101CE000C0F3C2000328F3D119E000BFFEF7BEFE27
:101CF000C11B51450BD82868C0F3C2000128F5D19B
:101D00000DE000BFFEF7B2FEC11B514503D9032011
:101D1000BDE8F08714E0286810F0380FF2D1D9F848
:101D20000010484601F00701B1420BD9016821F0CB
:101D3000070131430160006800F00700B04201D0A4
:101D40000120E5E72078400707D52269D8F8001080
:101D500021F070011143C8F8001021781B48001DC4
:101D6000090705D56269016821F07001114301601E
:101D70002178C90605D5A269016821F4E061114303
:101D800001602078800607D51048E26908300168B4
:101D900021F070011143016000F064F8D8F80010E0
:101DA0004FF4807292FAA2F201F47061B2FA82F2F8
:101DB000D140074A515CC840064908600020FFF73F
:101DC000FBF80020A4E7000000200052184402584D
:101DD0001C4A00081C00002410B5FFF763F90849ED
:101DE00001230A6893FAA3F3064902F00F02B3FA3B
:101DF00083F3DA40044B9A5CD040086010BD0000C9
:101E000018440258200000241C4A000810B5FFF7AF
:101E1000E3FF07491022096892FAA2F201F070016B
:101E2000B2FA82F2D140034A515CC84010BD0000B2
:101E30001C4402581C4A000810B5FFF7CDFF0749A3
:101E40004FF48072096892FAA2F201F4E061B2FAEA
:101E500082F2D140024A515CC84010BD1C44025875
:101E60001C4A00084749F0B547480968454B103BF4
:101E700011F0380409D00111082C04D0C210102C24
:101E80000BD0182C0BD00846F0BD19688906FBD57D
:101E90001968C1F3C101C840F0BD1046F0BD394C0E
:101EA000DFF8E0C01834261D0CF1240C2768351D1E
:101EB0002468DFED360AB7EE001A3668DCF800C099
:101EC00017F0030706F00106C4F30514CCF3CC0C9D
:101ED0001CFB06F600EE106AB8EE400A09D0012F8E
:101EE00001D0022F3BD02868B1FBF4F1C0F3080009
:101EF0003AE01968890615D51A682968C2F3C10243
:101F0000C1F30801D04001EE901AB0FBF4F0F8EEF6
:101F1000611A40EE201A00EE100A71EE810AB8EE46
:101F2000400A0BE02968B0FBF4F0C1F3080101EEB0
:101F3000901AB8EE612A01EE900A1BE020EE200A0A
:101F40002868C0F34620401C00EE900AF8EE600AB4
:101F500080EE201ABCEEC10A10EE100AF0BD28680F
:101F6000B2FBF4F1C0F3080001EE900AB8EE612A6A
:101F700001EE901A00EE202AB8EE610A72EE010A14
:101F8000DCE70000104402580090D0030000003944
:101F90002DE9F047FF4C05460078DFF8F883103C48
:101FA000FC4FC00708F118084CD03868C0F3C200D5
:101FB00002281AD03868C0F3C200032805D1D8F827
:101FC000000000F0030002280FD06868B0F5803FE1
:101FD00012D010B1B0F5A02F18D0206820F48030B6
:101FE0002060206820F4802009E02068800329D543
:101FF0006868002876D025E0206840F480302060B2
:10200000686890B1FEF732FD06460AE0206840F4A9
:1020100080202060F0E700BFFEF728FD801B6428C9
:102020007ED820688003F7D50CE0FEF71FFD06463A
:1020300005E000BFFEF71AFD801B6428F0D8206879
:102040008003F7D42878D34E0C3E80075DD53868DE
:102050004FF47C3A10F0380F13D03868C0F3C20048
:10206000032803D1D8F8000080070AD0E868C0B37D
:10207000216821F0190101432160FEF7F7FC814638
:1020800020E02068400702D5E8680028B2D0E9685F
:10209000206820F0190008432060FEF7E7FC814625
:1020A00006E000BFFEF7E2FCA0EB09000228B7D86B
:1020B00020684007F6D508E0FEF7D8FCA0EB090041
:1020C0000228ADD820684007F6D5286932689AFA08
:1020D000AAF1B1FA81F1884022F47C3101433160E8
:1020E00013E000E0AAE0206820F001002060FEF785
:1020F000BDFC814606E000BFFEF7B8FCA0EB09007E
:1021000002288DD820684007F6D42878C00649D523
:1021100038684FF0F84AC0F3C200012817D000E039
:10212000DAE03868C0F3C200032805D1D8F800000F
:1021300000F0030001280AD0E8690028206822D0B6
:1021400040F080002060FEF791FC81460CE02068A2
:10215000C0050CD5E869802870D108E0FEF786FC40
:10216000A0EB09000228A2D82068C005F6D5286A8D
:1021700032689AFAAAF1B1FA81F1884022F0F84166
:10218000014331600EE020F080002060FEF76EFC1D
:10219000064604E0FEF76AFC801B022887D8206808
:1021A000C005F7D42878000729D57A4869696430D2
:1021B00000298146016811D041F001010160FEF75C
:1021C00055FC064605E000BFFEF750FC801B0228C8
:1021D00097D8D9F800008007F6D510E021F001016A
:1021E0000160FEF743FC064605E000BFFEF73EFC3B
:1021F000801B022870D8D9F800008007F6D4287810
:10220000800625D5A8690028206810D040F48050A9
:102210002060FEF72BFC064605E000BFFEF726FC1B
:10222000801B022858D820688004F7D510E020F4DD
:1022300080502060FEF71AFC064606E0D7E000BF9B
:10224000FEF714FC801B022846D820688004F7D4CF
:10225000287840074FD5DFF84091D9F8001041F4B5
:102260008071C9F80010FEF701FC064605E000BFCA
:10227000FEF7FCFB801B64282ED8D9F80000C005AF
:10228000F6D5444EA868603601280AD008B1052862
:1022900013D0306820F001003060306820F0040076
:1022A00002E0306840F001003060A86841F2883AEE
:1022B00098B1FEF7DBFB81460AE0306840F004008D
:1022C0003060EEE7FEF7D2FBA0EB0901514503D8E1
:1022D00030688007F6D50EE088E0FEF7C7FB814640
:1022E00006E000BFFEF7C2FBA0EB090151457DD817
:1022F00030688007F6D4686AE8B33968C1F3C20170
:10230000032974D00228206820F08070206003D058
:10231000FEF7ACFB054685E0FEF7A8FB064604E0A9
:10232000FEF7A4FB801B022879D820688001F7D42F
:10233000EB6A40F2F332D8F800104FF4FE0755F87C
:10234000286F914341EA03113143C8F80010287BFC
:102350004FF0FE4C0F4EB5F8088040022B8A203615
:102360002A7DA8F10108311DA0F5007080B25B1E26
:10237000C8F3080800E058E0521E07EA034340EAA9
:10238000080018434FF6F8730CEA026210433060FD
:102390000A6803E0104402580048025893FAA3F771
:1023A0002E6A24489A43B7FA87F7BE4032430A6040
:1023B0000168AA6921F00C01114301600168EA6912
:1023C00021F0020111430160016841F48031016094
:1023D000016841F400310160016841F4802101602D
:1023E000016841F001010160206801E017E01EE092
:1023F00040F080702060FEF739FB054605E000BF25
:10240000FEF734FB401B022809D820688001F7D56D
:102410000BE000BFFEF72AFB401B022802D9032075
:10242000BDE8F08720688001F4D40020F8E701209F
:10243000F6E700002C440258064907480A6882F073
:1024400010020A60016881F04001016003A001F000
:102450001DBD00001404025814140258616C61720E
:102460006D20422F4D494E0A0D000000006850308B
:1024700050F8210070470068503040F82120704724
:102480002DE9F74F044690F820008B4601281AD01A
:1024900002224FF0010884F82080CA2184F821200C
:1024A000532022680025FF264FF0030A4FF47A7963
:1024B0005162216848622068806840050FD5FEF7A8
:1024C000D5FA074607E00220BDE8FE8FFEF7CEFAF8
:1024D000C01B484519D82068C0684007F6D420685A
:1024E000816821F4806181602068C16801F0800109
:1024F00061F49061C160FEF7B9FA07460DE000BFD4
:10250000FEF7B4FAC01B484507D921684E6284F82B
:1025100021A0032084F82050D6E72068C068400737
:10252000EED522684FF0B040C2F814B042462168A0
:102530008B6823F007038B6021688B68029F3B4305
:102540008B60D0F8801041F40021C0F88010016841
:1025500041F4002101602068816841F4804181607C
:102560002068816841F4806181602068466284F857
:102570002120002084F82050A6E7000010B508A014
:1025800001F084FC02F00EFA0B4890ED010ABDE860
:1025900010400AA0B7EEC00A53EC102B01F076BC35
:1025A00047495645204D4520544845204C55582014
:1025B0007E7E7E7E0D0A00000000002449534C32CE
:1025C00039303233204C75783A20252E30660D0A8A
:1025D000000000004FF0B04110B504464FF4002059
:1025E000C1F888002068C168490508D5C16801F0B4
:1025F000800161F49061C1602046FFF7BFFF0120B8
:1026000084F8210010BD0000064907480A6882F0DE
:1026100020020A60416981F02001416103A001F0BC
:1026200035BC00001404025800100258616C61723D
:102630006D20412F48520A0D000000004FF0B041BC
:1026400010B504464FF40030C1F888002068816856
:10265000C9040BD5C168C90508D5C16801F080015E
:1026600061F4C071C1602046FFF7CEFF2068816829
:1026700089040BD5C168890508D5C16801F08001BE
:1026800061F42071C1602046FFF7D6FE012084F876
:10269000210010BD10B50B4601680F48002A49689B
:1026A00001EA000101F03F044FEA1140D870C1F384
:1026B00004225A709C70C1F3423119700AD100F0A3
:1026C00095FFD870587800F091FF5870987800F016
:1026D0008DFF9870002010BD3FFFFF0030B50B4606
:1026E0000168144D4024002A896A5960016809690B
:1026F000C1F30E0199600068016801EA050104EA6E
:102700001142C1F305401870C1F306245C7001F05A
:102710007F019970DA700AD100F068FF187058785C
:1027200000F064FF5870987800F060FF9870002007
:1027300030BD00007F7F7F002DE9F041040003D011
:1027400094F8210018B108E00120BDE8F0810020D4
:1027500084F82000204600F047F8022084F8210089
:10276000CA2122685320516221684862204600F045
:1027700051FF002820684FF0FF0104D0042241627D
:1027800084F82120E0E7174D012382682A40826007
:10279000D4E90006A769256982683D4332432A438C
:1027A00082602268E068106120682289056945EA34
:1027B000024202612068C26822F08002C260206882
:1027C000C26C22F00302C26420686569E269C66CCB
:1027D0002A433243C2642068416284F821300020D9
:1027E000B3E70000BFFF8FFF00680449884204D1AF
:1027F0000348016841F400410160704700400058FF
:10280000704402582DE9F05F044690F820000B4612
:10281000012851D00221012084F8200084F82110E1
:102820004FF00006206880684FEA4060F2B300284D
:1028300063DA187800F0DAFE93F8200000F0D6FE94
:10284000597893F800C0DA789878090293F8205004
:1028500040EA0C40DF6941EA0241D3F814C0084362
:1028600040EA05653D4345EA0C052268D3F818C0E7
:10287000CA215F6853204FF0FF0851624FF47A7A03
:10288000216847EA0C074FF0030B4862586AB0F51D
:10289000807F2068816832D021F4007181602068D7
:1028A000C16801F0800161F4207100E007E0C160BF
:1028B000FEF7DCF881465EE00220BDE8F09F0028CC
:1028C00000DBDE70187800F09AFE0204587800F001
:1028D00096FE42EA0022987800F091FED9780243F1
:1028E00093F8200042EA014200F089FED96942EAE9
:1028F000006558690D430543B7E7DE709CE721F496
:10290000807181602068C16801F0800161F4C0714C
:10291000C160FEF7ABF881460CE000BFFEF7A6F8F9
:10292000A0EB0900504505D92268C2F8248084F83C
:1029300021B01CE02068C068C007EFD02068C561E6
:10294000206847642068816841F480718160206854
:10295000816841F480511FE0FEF788F8A0EB090080
:10296000504508D92268C2F8248084F821B0032099
:1029700084F82060A1E72068C0688007ECD5206853
:102980000562206887642068816841F40071816075
:102990002068816841F4005181604FF0B040D0F868
:1029A0008030012243F40033C0F88030036843F4E0
:1029B000003303602068C0F8248084F821200020C0
:1029C00084F8206079E700002DE9F047044690F88C
:1029D00020000B46012828D04FF0010984F82090F0
:1029E000022184F82110587812B300F0FFFD987886
:1029F00000F0FCFD59789878DA781B78090240EAF3
:102A0000024541EA433005432268CA2153205162FE
:102A100021684862204600F0FDFD4FF000064FF0AF
:102A2000FF074FF0040858BB19E00220BDE8F0870B
:102A3000C10603D500F0EF000A305870D87800F0D6
:102A4000DEFD0204587800F0DAFD42EA00229878B0
:102A500000F0D5FD1978024342EA4135D4E72168F8
:102A60000F4805404D602068C16821F08001C160B9
:102A70002068806880060BD4204600F091F838B1B9
:102A800021684F6284F82180012084F82060CDE71E
:102A900021684F6284F82190002084F82060C5E707
:102AA0003FFFFF002DE9F047044690F820000D4657
:102AB000012813D04FF0010A84F820A0022184F8E5
:102AC000211020684FF0000680684FEA406042B154
:102AD00000281ADA287800F089FD17E00220BDE806
:102AE000F087002800DBEE70287800F088FD0204F3
:102AF000687800F084FD42EA0022A87800F07FFDAB
:102B0000E978024342EA01470AE0EE7069782A78E0
:102B1000A878EB78090240EA024741EA03400743FC
:102B20002268CA215320516221684862204600F081
:102B300071FD4FF0FF084FF00409E0B92168174814
:102B400007400F602068816821F48021816020683F
:102B5000D5E9031283681143194381602068C16875
:102B600021F08001C1602068806880060CD4204676
:102B700000F016F840B12268C2F8248084F8219051
:102B8000012084F82060AAE72268C2F8248084F833
:102B900021A0002084F82060A1E700007F7F7F0053
:102BA00070B504460068C16821F0A001C160FDF75E
:102BB0005DFF4FF47A76054607E000BFFDF756FF4C
:102BC000401BB04201D9032070BD2068C068800658
:102BD000F4D5002070BD401EB0F1807F10B501D348
:102BE000012010BD4FF0E02460610F21601701F05B
:102BF0005DF90020A0610721216110BD10B504001E
:102C000003D094F8790010B107E0012010BD002036
:102C100084F87800204600F027F8242084F8790012
:102C20002068016821F001010160204600F086FE65
:102C30000128EBD0606B10B1204600F0EDFD20685C
:102C4000416821F4904141602068816821F02A01A7
:102C500081602068016841F0010101602046BDE803
:102C6000104000F03DBE000010B586B004461421AF
:102C70006846FDF767FB13492068884220D1124857
:102C8000016841F010010160006800F0100005903B
:102C90000D481038016841F0010101600068002210
:102CA0004FF4C06100F00100059002200723049357
:102CB000CDE90010CDE9022004486946FDF7DCFDAE
:102CC00006B010BD00100140F04402580000025848
:102CD0002DE9F843044690F879001F4616460D4644
:102CE00020284ED1C5B1BEB194F87800012848D053
:102CF000012284F8782021214FF00008C4F87C805C
:102D000084F879106034FDF7B1FE26808146668034
:102D1000603C4FF4805619E00120BDE8F88300BF05
:102D2000B4F86200401EA4F8620000224B468021E5
:102D30002046009701F076F8A0B9A068B04201D112
:102D4000206988B115F8010B21680885B4F8620084
:102D50000028E5D100224B4640212046009701F093
:102D600061F838B10320D8E735F8020B2168C0F3C9
:102D70000800EAE7202184F87910002084F87880A0
:102D8000CBE70220C9E7FEE710B500F015F8BDE873
:102D9000104000F08FB801688A69D243920701D4CD
:102DA00000228A6200688169C943C90703D081692A
:102DB00041F00101816170471D4810B586B001687E
:102DC00041F400110160006800F4001005901848FB
:102DD0000838016841F002010160016801F0020158
:102DE0000591016841F0020101600068122102238F
:102DF00000F0020005904020002204248DE81F000E
:102E00000C4C69462046FDF737FD8020694600904E
:102E10002046FDF731FD06484C38016841F080013D
:102E20000160016821F08001016006B010BD000062
:102E3000E8440258000402582DE9F04104460068B5
:102E400090460E468069C043C0062FD40025202737
:102E500020688069C043800611D5701CF8D02EB15F
:102E6000FDF704FEA0EB0800B042F1D984F84170F0
:102E700084F84250032084F84050BDE8F081216876
:102E80001020C8612068C7612046FFF784FF2068D2
:102E90000422074943680B404360626484F8417030
:102EA00084F84250012084F84050E6E70020E4E72F
:102EB00000E800FE0C48002110B50A4C01230B4A23
:102EC0000460C0E90121C0E9033141618161C16150
:102ED0000162FDF701FEBDE8104003480021FDF747
:102EE000CBBD000000540040E4000024734E60405D
:102EF0003EB54FF47A748DE81C000A46014602483C
:102F00000123FDF7D5FE3EBDE40000242DE9F84382
:102F1000174604461848DAB2DDE908981E460090C4
:102F20000023204600F062F842464946204600F061
:102F3000C4F818B1606C04281CD018E0012EFDB252
:102F400009D02068390A816242464946204600F08D
:102F5000B4F80028EED120688562002240214B465B
:102F60002046CDF8008000F057F8002800D003205C
:102F7000BDE8F8830120FBE7002000802DE9F8433D
:102F80000446194817461E46DAB20090C30220468E
:102F9000DDE9089800F02AF842464946204600F04C
:102FA0008CF818B1606C04281CD018E0012EFDB21A
:102FB00009D02068390A816242464946204600F01D
:102FC0007CF80028EED120688562002280214B46E3
:102FD0002046CDF8008000F01FF8002800D0032024
:102FE000BDE8F8830120FBE70020008070B5006891
:102FF000C1F30901074E41EA0241049C4FF4806588
:103000004268194305EA54553543AA4321430A430C
:10301000426070BDFF63FF032DE9F0411D46174676
:103020000E460446DDF8188013E0681C11D02DB15F
:10303000FDF71CFDA0EB0800A8420AD900202021C2
:1030400084F8411084F8420084F840000320BDE871
:10305000F0812068806936EA000004D00020B84280
:10306000E3D00020F3E70120F9E770B516460D46DE
:1030700004461BE0324629462046FFF7DDFE08B134
:10308000012070BD25B1FDF7F1FC801BA8420DD9D0
:10309000626C002084F84000202142F0200262642B
:1030A00084F8411084F84200032070BD20688069D4
:1030B000C0438006DED4002070BD70B516460D46B4
:1030C00004461DE0324629462046FFF7B5FE08B10A
:1030D000012070BD681C13D025B1FDF7C7FC801B13
:1030E000A8420DD9626C002084F84000202142F0F3
:1030F0002002626484F8411084F84200032070BD0D
:1031000020688069C0438007DCD4002070BD0000C7
:103110003EB59BB264248DE81C000A4601460D486A
:103120000123FDF77DFE04460A48FDF7D1FC202867
:10313000FAD14FF496750748A0212A462B46FDF791
:1031400027FD0328F7D00348FDF7C2FC2028FAD159
:1031500020463EBDE40000242448F0B5016887B055
:1031600041F002010160016801F00201059101686E
:1031700041F010010160016801F010010591016842
:1031800041F002010160016801F00201059101684E
:1031900041F02001016000680221154E202400F05A
:1031A000200005900120CDE902016946CDE90040EB
:1031B0003046FDF761FB0F4F694600943846FDF736
:1031C0005BFB1025694630460095FDF755FB0A4824
:1031D000402669460096FDF74FFB05480649183022
:1031E0003C83183105800E8007B0F0BDE0440258E2
:1031F0000004025800100258001402580D4808B587
:10320000016841F080010160016801F080010091D6
:10321000016841F001010160016801F001010091C4
:10322000016841F002010160006800F002000090B6
:1032300008BD0000E04402580C4800210A4A7F23E0
:1032400010B5FF2404C080E81A00C16041618161AB
:103250000161001FFFF770FA002803D0BDE810409D
:10326000FDF7F6BA10BD00000040005844010024EC
:103270000A48052310B50124242204702321437039
:1032800082702246C17001460548FFF79DFB002869
:1032900003D0BDE81040FDF7DBBA10BD0C000024E0
:1032A000440100240A48122310B55922002103705A
:1032B000427001228170C160016101461430FFF744
:1032C000F1FB002803D0BDE81040FDF7C1BA10BDE6
:1032D000300100242DE9F041194C01274FF4007C06
:1032E0001848BA074FF07061C4F824C0002584F86C
:1032F000207004F114070223342687E80700E570E4
:103300000122237021466670A5700F486560FFF7A3
:1033100079FA0E494FF480726262302061610122B5
:1033200065702146A0700848FFF76CFA0122002161
:103330002920FDF77DFEBDE8F0412920FDF76ABE9A
:103340003C00002400808080440100240000808034
:10335000074804221D2110B5FFF792F80022032030
:103360001146FDF765FEBDE810400320FDF752BE93
:10337000440100240F48002110B50D4C0C224FF4DD
:10338000E1330460C0E90131C160C0E90412816128
:10339000C161016241628162C16201634163FFF701
:1033A0002DFC002803D0BDE81040FDF751BA10BD38
:1033B0000010014064000024FEE7704770470000E1
:1033C0002DE9F0473C4E044689464FF0000A30682C
:1033D000C04380070AD0384D283D286820F080601F
:1033E0002860FDF743FB0746A84608E00120BDE83A
:1033F000F08700BFFDF73AFBC01B022855D8D8F86C
:1034000000000001F6D4206831684FF4FE0C4FF044
:10341000FE4721F47C3141EA00303060207AA688F2
:10342000A3894002244D761E23495B1E227C103561
:10343000091DA0F5007080B2521EC6F30806304385
:103440000CEA0343184307EA026210432860086845
:10345000626920F0C000104308600868A26920F08B
:10346000200010430860B9F1000F11D00868B9F1CD
:10347000010F11D040F400100860D8F80000444655
:1034800040F08060C8F80000FDF7F0FA05460EE055
:10349000086840F40020EFE740F48010ECE700BF3C
:1034A000FDF7E4FA401B022801D903209FE72068BA
:1034B0000001F5D550469AE7284402582DE9F04717
:1034C0003C4E044689464FF0000A3068C0438007EE
:1034D0000AD0384D283D286820F080502860FDF73C
:1034E000C5FA0746A84608E00120BDE8F08700BFFE
:1034F000FDF7BCFAC01B022855D8D8F800008000A0
:10350000F6D4208831684FF4FE0C4FF0FE4721F0CE
:103510007C7141EA00503060207AA688A38940027D
:10352000244D761E23495B1E227C1835091DA0F50B
:10353000007080B2521EC6F3080630430CEA034303
:10354000184307EA0262104328600868626920F4A1
:103550004060104308600868A26920F400701043BE
:103560000860B9F1000F11D00868B9F1010F11D04E
:1035700040F080700860D8F80000444640F0805069
:10358000C8F80000FDF772FA05460EE0086840F43E
:103590008000EFE740F40000ECE700BFFDF766FABB
:1035A000401B022801D903209FE720688000F5D541
:1035B00050469AE728440258084810B50068C16888
:1035C000C90502D4C068800507D505A000F05EFCDF
:1035D000BDE810400148FFF731B810BD4401002498
:1035E000616C61726D2041420A0D0000020900F019
:1035F0000F0102EB820001EB4000C0B270470021D6
:1036000002E00A38491CC0B20A28FAD2090740EA87
:103610001160704770B504460068C168490614D44B
:103620004FF0FF31C160FDF721FA4FF47A7605467D
:1036300007E000BFFDF71AFA401BB04201D9032092
:1036400070BD2068C0684006F4D5002070BD000041
:1036500010B512480068C06840051ED51049002208
:103660000E48FFF73BF80F4900220C48FFF712F80D
:103670000C48C178837842780BA001F5FA6100F01C
:1036800005FC07488378427801780CA000F0FEFB27
:10369000BDE810400148FEF79DBF10BD4401002465
:1036A0002800002408000024253032642F25303201
:1036B000642F253032640D0A00000000253032648A
:1036C0003A253032643A253032640D0A0000000099
:1036D0007047FDF75BBC0000F0B5CBB04C212FA8C4
:1036E000FCF730FE202142A8FCF72CFEBC216846E6
:1036F000FCF728FE2448016821F0040101602248FB
:103700000C300024016841F440410160016801F47B
:1037100040414A9101688904FCD5FDF7BBFC1B4E72
:103720000125022033680421052223F018073760A1
:10373000C3032F9239AE38904FF4C87286E8070061
:103740003EAA3C903D9082E81300CDE930352FA889
:103750004194FEF71DFC402008230601CDE94530C9
:1037600042ABCDE9470649903F21032283E816008A
:10377000022142A8FEF742FA009568461E94FDF722
:10378000E1FD4BB0F0BD00000C48025870440258F7
:103790001D4AF0B51D49146800201C4B44F4700408
:1037A000146010330A681A4C42F001020A60186073
:1037B0000D68164A25400D601832131D1C1D134D4F
:1037C0001060283518602A1D2060131D1C1D2860FC
:1037D000251D10602A1D1860131D20601C1D286007
:1037E0001060186020600A680124084B064FE60646
:1037F000084D6033803F22F480220A601860C5F8CB
:1038000008413E60F0BD000088ED00E00044025831
:103810007FEDF6EA0080005190F83410C90706D019
:103820000168836B4A6822F400321A434A6090F8B8
:103830003410890706D50168C36B4A6822F48032C8
:103840001A434A6090F83410490706D50168036CA2
:103850004A6822F480221A434A6090F8341009071B
:1038600006D50168436C4A6822F400421A434A6054
:1038700090F83410C90606D50168836C8A6822F472
:1038800080521A438A6090F83410890606D5016880
:10389000C36C8A6822F400521A438A6090F834108C
:1038A000490611D50168036D4A6822F480121A4353
:1038B0004A60016DB1F5801F06D10168436D4A6809
:1038C00022F4C0021A434A6090F83410090606D563
:1038D0000168826D486820F40020104348607047FA
:1038E000F8B500260446C667FDF7C0F8054620680F
:1038F0006FF07E470068000708D500222B464FF482
:1039000000112046009700F08DFA60B92068006829
:1039100040070AD500222B464FF48001204600972D
:1039200000F080FA08B10320F8BD202084F8790067
:1039300084F8786084F87A000020F8BD2DE9F04F13
:1039400004460268816887B0C369D4E90465806A67
:103950003143F84E1D4313682943DFF8DC930843D5
:103960008025334000210343136020680F46E3683D
:10397000426822F440521A4342602368A0694B45D2
:1039800001D0226A1043A26AB2F1005F03D1D4E9E8
:103990000B2632431043D3F808C0DFF8A083E84E6B
:1039A000E84A0CEA080C4CEA000CC3F808C020688E
:1039B000D4F824C0C36A23F00F0343EA0C03C362A4
:1039C0002068B04210D1126802F03802182A74D070
:1039D00005DCCAB3082A7AD0102A47D179E0202A18
:1039E0007BD0282A7CD17AE0D74B984209D1126843
:1039F00002F00702062A73D2DFE802F053696B6D0A
:103A00006F71D24B984209D1126802F00702062A60
:103A100066D2DFE802F0465C5E606264CC4B98429E
:103A200009D1126802F00702062A59D2DFE802F033
:103A3000394F51535557C74B98420BD1126802F07A
:103A40000702062A4CD200E00EE0DFE802F02A402E
:103A500042444648C04B984209D1126802F03802ED
:103A6000182A38D0BBDCB4E74FF0010538E0BB4B77
:103A7000984209D1126802F00702062A30D2DFE824
:103A800002F01026282A2C2EB54B98420BD1126832
:103A900002F00702062A23D2DFE802F003191B1DF9
:103AA0001F2100251CE048451AD1A64A121D1268A4
:103AB00002F00702062A13D202E00CE007E00CE055
:103AC000DFE802F0030507090B0D022508E00425D5
:103AD00006E0402504E0082502E0102500E020254E
:103AE000A04EDFF884A24845DFF880B27DD1102DCA
:103AF00031D006DC022D09D0042D0AD0082D2FD19B
:103B000011E0202D29D0402D2AD107E0FDF7E4FA5D
:103B100013E06846FDF7F6FA01980EE003A8FDF7FA
:103B200081FB049809E0DBF800005946800610D5B7
:103B30000968C1F3C1012AFA01F0002811D06168B7
:103B4000894601EB410181420AD8B0EB093F07D811
:103B500008E05046F3E78648F1E74FF40040EEE70F
:103B6000012759E1102D4FF000085BD006DC022D33
:103B700011D0042D20D0082D04D13AE0202D57D0AB
:103B8000402D1ED001277B4AA0F540719142E7D815
:103B90002168C86040E1FDF79FFA626A0023414650
:103BA00036F81220FCF796FB6268090241EA1061C0
:103BB000034650081B0216E06846FDF7A3FA019879
:103BC00003E003A8FDF72EFB04980023616A36F892
:103BD00011201946FCF77EFB626803461D0E500853
:103BE0001B0245EA0121181800E036E041EB08010C
:103BF00014E0DBF800005946800609D50968002367
:103C0000C1F3C1012AFA01F0616A36F8112015E00A
:103C1000606A002336F8102050460FE00023FCF7BE
:103C200059FBB0E7606A002336F81020504805E0E1
:103C3000606A002336F810204FF400400021FCF7A2
:103C400049FB02464FEA5900130E120210184A4669
:103C500043EA012141EB0801E0E7E3694FF4004248
:103C6000934257D1082D2BD005DC95B1012D13D0EF
:103C7000042D06D118E0102D3DD0202D43D0402D2D
:103C800018D00127226821F00F00C1F34201084338
:103C90009CE0FEF7BBF801E0FEF7CEF80146606A53
:103CA00036F8102060682BE06846FDF72BFA626A50
:103CB000019922E003A8FDF7B5FA626A04991CE0B5
:103CC000DBF800105846626A890608D5036836F8A2
:103CD00012206068C3F3C1032AFA03F110E036F83A
:103CE00012206068BAFBF2F1490001EB5001B1FB10
:103CF000F0F081B2C6E71E49626A606836F81220A9
:103D0000B1FBF2F1F0E7616A606836F81110B2FBBE
:103D1000F1F1E9E7082D5BD02EDC55B1012D46D03D
:103D2000042D7FF41DAF6846FDF7ECF9626A019936
:103D30002DE039E0F369FFCF000C0058FFF4FF11CC
:103D40000010014054440258004400400048004024
:103D5000004C00400050004000140140007800403A
:103D6000007C0040044A00080090D0030044025840
:103D700000093D00FFFC0F00102D3ED0202D3FD04C
:103D8000402DCED103A8FDF74DFA626A0499D4E91B
:103D9000003036F81220B1FBF2F101EB5001B1FB1B
:103DA000F0F080B2D86037E0FEF730F801E0FEF7BF
:103DB00043F80146606A36F81030D4E90020B1FBC0
:103DC000F3F101EB5001B1FBF0F080B2D06023E0E1
:103DD000DBF800205946636A920608D50D686168D1
:103DE00036F81330C5F3C1042AFA04F20CE036F8B1
:103DF00013306168BAFBF3F208E0094A636A00E035
:103E0000636A616836F81330B2FBF3F202EB5102D9
:103E1000B2FBF1F189B2C16007B03846BDE8F08F5E
:103E200000093D002DE9F041984617460E4604462C
:103E3000069D1DE0681C1BD02DB1FCF717FEA0EB02
:103E40000800A84214D92168202000220B6823F41E
:103E5000D0730B6021688B6823F001038B6084F8BA
:103E6000790084F87A00032084F87820BDE8F08196
:103E70002068C06936EA000004D00020B842D9D0DA
:103E80000020F3E70120F9E7FEE700000FB4054B3F
:103E900010B503A9044A029800F0EAF810BC5DF8D6
:103EA00014FB0000794700082400002409070028BB
:103EB0004FEA116104DB00F1E02080F80014704744
:103EC00000F00F0000F1E02080F8141D704702E0C0
:103ED00008C8121F08C1002AFAD170477047002095
:103EE00001E001C1121F002AFBD170472DE9FF5FDD
:103EF00082B00021DDE90430020DDDF840B003435B
:103F000018D044F61050A2F2FF3242431514119813
:103F100001281FD0A5EB0B00401C5FEA000A4FF000
:103F200000064E4FDFF83891B046504615D5CAF11D
:103F3000000413E0119801244AA3012801D16FEA7B
:103F40000B010298119AC0E90031C0E9024206B0A3
:103F5000BDE8F09FCBF10000DFE704460021404AB6
:103F6000491842EB0450CDE9001012E0E00707D0F9
:103F700032463B4640464946FCF7CBFA80468946E6
:103F800032463B4610461946FCF7C3FA06460F4632
:103F90006410002CEAD1DDE90401DDE90023BAF167
:103FA000000F06DAFCF7B5FA42464B46FCF7B1FAC9
:103FB00005E0FCF720FB42464B46FCF71CFB0446A1
:103FC0000E460022284BFCF79DFB03D84FF0FF3034
:103FD000014607E00022254B20463146FCF7F2F966
:103FE000FCF778FB102409E0002C0ADB0A220023EE
:103FF000FCF770F9039B30321A55641E50EA010237
:10400000F2D1641C039AC4F111031444119A012AD9
:1040100003D0012208430DD10AE0084304D0002058
:104020004FF0110B119072E7A3EB0B056D1E0DE025
:104030005B4504DD4FF0000205F1010504E003DA01
:104040004FF00002A5F10105002AECD00298119969
:10405000C0E90231C0E9004579E7000000001440E2
:104060000000F03F300000000000F0430000E03F9F
:104070002DE9FF4F95B09A46884606460025EEE1A9
:10408000252877D100242746F94A0121039400E02E
:10409000044316F8013F203B01FA03F01042F7D128
:1040A00030782A2811D06FF02F033078A0F1300239
:1040B000092A16D8039A44F0020402EB820203EBA9
:1040C00042021044761C0390EFE758F8042B039249
:1040D000002A03DA504244F40054039044F00204EE
:1040E000761C30782E2816D116F8010F44F00404FF
:1040F0002A280DD06FF02F023078A0F13003092B61
:1041000009D807EB870302EB4303C718761CF3E7D4
:1041100058F8047B761C30786C280FD006DC4C28CD
:1041200017D068280DD06A2814D104E0742810D064
:104130007A280FD10DE044F400140AE044F480140E
:1041400001E044F440147278824202D104F58014F4
:10415000761C761C307866280BD013DC582877D074
:1041600009DC002875D04528F6D04628F4D0472829
:104170001AD193E118E0632835D0642879D06528F6
:1041800012D18BE1702873D008DC6728F1D0692840
:104190006FD06E280DD06F2806D1ACE073282CD0DC
:1041A000752874D0782853D05246179990476D1CC3
:1041B00054E1C4F30250022809D003280DD0D8F8E6
:1041C000001004280DD00D6008F1040846E1D8F86D
:1041D0000010EA17C1E90052F6E7D8F800100D8088
:1041E000F2E70D70F0E718F8041B8DF800100020BE
:1041F0008DF80100EB46012003E058F804BB4FF0B6
:10420000FF3061074FF0000102D40DE009F1010118
:104210008946B9420FDA8145F8DB1BF809100029FD
:10422000F4D108E009F1010189468142FADB1BF86B
:1042300009100029F6D103985346A0EB090721463F
:104240003846179A00F080FA284400EB090507E089
:1042500044E008E10DE01BF8010B52461799904726
:10426000B9F10109F7D2534621463846179AF2E0D0
:1042700039E00A21C4F302524FF0000B0091022AE8
:1042800006D058F8040BC117032A09D00AE023E02E
:1042900008F1070020F00702F2E80201904605E06D
:1042A00000B2C117042A01D140B2C117002906DAB1
:1042B0000A460021404261EB02012D2202E0220564
:1042C00004D52B228DF80420012203E0E20701D05F
:1042D0002022F7E7914657E00A2100E010214FF035
:1042E000000B00910BE010214FF0000B44F0040490
:1042F0000827009103E008204FF0000B0090C4F362
:104300000252022A05D058F8040B0021032A08D0D3
:1043100008E008F1070020F00702F2E802019046E9
:1043200003E080B2042A00D1C0B24FF00009220796
:104330002AD53278702A07D0DDF800C08CF0100C36
:104340005CEA0B0C05D00EE040228DF8042001221F
:1043500008E050EA010306D030238DF804308DF8D0
:10436000052002229146009B83F0080353EA0B03C9
:104370000AD150EA010201D1620705D530228DF839
:1043800004204FF001097F1E3278582A04D039A248
:104390000C920CAA02920BE03BA2F9E75B46009A52
:1043A000FBF798FF0C9B9B5C029A521E02921370C3
:1043B00050EA0102F2D1029804A9081A00F1200B78
:1043C000600702D524F4803400E001275F4502DD58
:1043D000A7EB0B0000E0002000EB0B01009003981E
:1043E0004944401A0390E00306D453462146179AE5
:1043F000039800F0A9F90544002706E001A85246F9
:10440000C05D179990476D1C7F1C4F45F6DBE0039C
:104410000CD553462146179A039800F095F90544A8
:1044200004E030205246179990476D1C0099481EB1
:1044300000900029F5DC08E00298029952460078C5
:10444000491C0291179990476D1CBBF10001ABF11B
:10445000010BF1DC5BE100F065F90544761C307876
:1044600000287FF40DAE19B02846BDE8F08F00009B
:10447000092801003031323334353637383961623A
:1044800063646566000000003031323334353637FE
:10449000383941424344454600000000600700D4DB
:1044A000062708F1070020F00700F0E80223804605
:1044B00003F0004C5FEA0C0001D097A009E0200552
:1044C00001D596A005E0E00701D095A001E0AFF28C
:1044D0004C001390307823F0004365280CD006DCA4
:1044E000452809D046281DD047287FD13BE06628C3
:1044F00018D067287AD136E00021112F01DB112076
:1045000000E0781CCDE9000104A90CA8FFF7EEFC3F
:10451000DDE90D010C9A4FF0000B07F10109109233
:1045200000914EE04FF000400097CDE9011004A942
:104530000CA8FFF7DBFCDDE90D020C9B0F994FF097
:10454000000B91461093009211B9791C00EB010900
:10455000B7EB090003D4C0F1FF3B07F10109A9EB58
:104560000700019042E0012F00DA01270021112FFE
:1045700001DD112000E03846CDE9000104A90CA8B6
:10458000FFF7B4FCDDE90D010C9A00914FF0000B30
:10459000B946109221070FD4009A4A4503DA914692
:1045A00001E0A9F10109B9F1010F05DD109AA9F1A6
:1045B0000101515C3029F4D0B84202DA10F1040F45
:1045C00003DA0121CDE9011010E0002803DC834467
:1045D000A9EB000102E0411C494500DD8946A0EB42
:1045E0000B00401C01904FF000400290200705D4C2
:1045F0000198484502DB4FF0FF30019000208DF814
:104600004B0002980DF14B07B0F1004F25D002206E
:104610000C902B200D90029800280CDA404202905A
:104620002D200D9007E00A210298FBF796FE30310D
:10463000029007F8011D0C99481E0C900029F2DC2D
:1046400002980028EFD1791E0D980870307800F09C
:10465000200040F0450007F8020D11A8C01BC01D46
:1046600002901398007800B1012000EB0901019835
:1046700001EBE071029801440398401A401E039038
:10468000E00306D453462146179A039800F05CF8DD
:1046900005441398007818B15246179990476D1C3D
:1046A000E00323D553462146179A039800F04CF8AF
:1046B00005441BE0BBF1000F07DB0098584504DD03
:1046C0001098179910F80B0001E017993020524606
:1046D000904701980BF1010B401E05F10105019077
:1046E00004D12E205246179990476D1CB9F1000154
:1046F000A9F10109DEDC05E017F8010B5246179914
:1047000090476D1C0299481E02900029F4DC534624
:104710002146179A03989EE62D0000002B0000000A
:10472000200000002DE9F041044600251E461746F2
:10473000880404D405E039462020B0476D1C641E6F
:10474000F9D52846BDE8F0812DE9F0410446002561
:104750001E469046C80301D5302700E02027880474
:1047600004D505E041463846B0476D1C641EF9D5B6
:104770002846BDE8F081000013B5044801224FF639
:10478000FF736946FEF7A4FA00981CBD640000247C
:1047900008B500206A46A021009001238DF8001082
:1047A00001468920FEF7B4FC03206A4601238DF8F8
:1047B000000089201946FEF7ABFC64206A460123FD
:1047C0008DF8000004218920FEF7A2FC002008BD1E
:1047D00008B500240094FCF7E1FBFEF77DFFFEF72F
:1047E0000DFDFEF7C7FDFEF7CFFAFEF7B5FCFEF7AD
:1047F00023FDFEF76FFDFEF7ABFD3CA141A0FFF7E7
:1048000045FB42A145A0FFF741FB45A146A0FFF7AC
:104810003DFBFFF7BDFF46482021464A1023464E88
:104820004025018011830380358000214348FDF736
:104830001DFE014642A0FFF729FB40480021FDF77D
:1048400015FE43F2F225A8420CD042A0FFF71EFB52
:10485000FEF728FDFEF70CFD384800212A46FDF73B
:104860000AFE01E0FEF7E8FC3F4D2878012829D038
:104870003E4900223148FDF731FF3B4900222F48D5
:104880000831FDF707FF38480830C178837842784F
:1048900037A001F5FA61FFF7F9FA344883784278D6
:1048A000017838A0FFF7F2FA3BA0FFF7EFFA4FF4D8
:1048B000FA60FBF7CFFF39A0FFF7E8FA6420FBF7B7
:1048C000C9FFD2E72C70012300216A4689208DF8A8
:1048D0000040FEF71DFCA0206A4601238DF8000071
:1048E00000218920FEF714FCE8E7000043594553F6
:1048F00053204C55582052544320414C41524D2096
:10490000485733000A0D20257300000020546573BA
:1049100074696E67206F6E202000000020257300F0
:1049200055415254310000002025730A0D0000004B
:1049300018040258001002581814025844010024A8
:104940005254435F424B505F4452303A25780D0A2F
:10495000000000000D0A46697273742073657420AC
:104960005254430D0A0000000000002428000024D7
:10497000253032642F253032642F253032640D0A01
:1049800000000000253032643A253032643A253088
:1049900032640D0A000000000D0A0000776169749E
:1049A0000A0D000038B500206A460123032100905B
:1049B0008920FEF79DFA9DF8000001230E4C02218C
:1049C0006A46000260808920FEF792FA9DF8000096
:1049D0006188DFED0A0A0843608000EE100A9FED4F
:1049E000081A0020B8EE400A20EE200A20EE010A44
:1049F00084ED010A38BD00000000002400007A4761
:104A000000008037010002000400060008000A00D0
:104A10000C00100020004000800000010000000099
:104A20000102030401020304060708094C4A0008B6
:104A30000000002428000000CE3E0008744A000850
:104A40002800002440050000DE3E000800000000B1
:104A50000000000000000000000000000100000055
:104A600010000000000000000090D0030090D00370
:044A70000000000042
:040000050800029954
:00000001FF
